{
  "_format": "hh-sol-artifact-1",
  "contractName": "DumbCarsNFT",
  "contractAddress": "0xb13Af69634d01bb60103623459e55d281CE9b2E6",
  "sourceName": "contracts/DumbCarsNFT.sol",
  "abi": [
    {
      "inputs": [],
      "stateMutability": "nonpayable",
      "type": "constructor"
    },
    {
      "anonymous": false,
      "inputs": [
        {
          "indexed": true,
          "internalType": "address",
          "name": "owner",
          "type": "address"
        },
        {
          "indexed": true,
          "internalType": "address",
          "name": "approved",
          "type": "address"
        },
        {
          "indexed": true,
          "internalType": "uint256",
          "name": "tokenId",
          "type": "uint256"
        }
      ],
      "name": "Approval",
      "type": "event"
    },
    {
      "anonymous": false,
      "inputs": [
        {
          "indexed": true,
          "internalType": "address",
          "name": "owner",
          "type": "address"
        },
        {
          "indexed": true,
          "internalType": "address",
          "name": "operator",
          "type": "address"
        },
        {
          "indexed": false,
          "internalType": "bool",
          "name": "approved",
          "type": "bool"
        }
      ],
      "name": "ApprovalForAll",
      "type": "event"
    },
    {
      "anonymous": false,
      "inputs": [
        {
          "indexed": true,
          "internalType": "address",
          "name": "previousOwner",
          "type": "address"
        },
        {
          "indexed": true,
          "internalType": "address",
          "name": "newOwner",
          "type": "address"
        }
      ],
      "name": "OwnershipTransferred",
      "type": "event"
    },
    {
      "anonymous": false,
      "inputs": [
        {
          "indexed": true,
          "internalType": "address",
          "name": "from",
          "type": "address"
        },
        {
          "indexed": true,
          "internalType": "address",
          "name": "to",
          "type": "address"
        },
        {
          "indexed": true,
          "internalType": "uint256",
          "name": "tokenId",
          "type": "uint256"
        }
      ],
      "name": "Transfer",
      "type": "event"
    },
    {
      "inputs": [
        {
          "internalType": "address",
          "name": "to",
          "type": "address"
        },
        {
          "internalType": "uint256",
          "name": "tokenId",
          "type": "uint256"
        }
      ],
      "name": "approve",
      "outputs": [],
      "stateMutability": "nonpayable",
      "type": "function"
    },
    {
      "inputs": [
        {
          "internalType": "address",
          "name": "owner",
          "type": "address"
        }
      ],
      "name": "balanceOf",
      "outputs": [
        {
          "internalType": "uint256",
          "name": "",
          "type": "uint256"
        }
      ],
      "stateMutability": "view",
      "type": "function"
    },
    {
      "inputs": [],
      "name": "baseTokenUri",
      "outputs": [
        {
          "internalType": "string",
          "name": "",
          "type": "string"
        }
      ],
      "stateMutability": "view",
      "type": "function"
    },
    {
      "inputs": [
        {
          "internalType": "uint256",
          "name": "tokenId",
          "type": "uint256"
        }
      ],
      "name": "getApproved",
      "outputs": [
        {
          "internalType": "address",
          "name": "",
          "type": "address"
        }
      ],
      "stateMutability": "view",
      "type": "function"
    },
    {
      "inputs": [
        {
          "internalType": "address",
          "name": "owner",
          "type": "address"
        },
        {
          "internalType": "address",
          "name": "operator",
          "type": "address"
        }
      ],
      "name": "isApprovedForAll",
      "outputs": [
        {
          "internalType": "bool",
          "name": "",
          "type": "bool"
        }
      ],
      "stateMutability": "view",
      "type": "function"
    },
    {
      "inputs": [],
      "name": "isPublicMintEnabled",
      "outputs": [
        {
          "internalType": "bool",
          "name": "",
          "type": "bool"
        }
      ],
      "stateMutability": "view",
      "type": "function"
    },
    {
      "inputs": [],
      "name": "maxPerWallet",
      "outputs": [
        {
          "internalType": "uint256",
          "name": "",
          "type": "uint256"
        }
      ],
      "stateMutability": "view",
      "type": "function"
    },
    {
      "inputs": [],
      "name": "maxSupply",
      "outputs": [
        {
          "internalType": "uint256",
          "name": "",
          "type": "uint256"
        }
      ],
      "stateMutability": "view",
      "type": "function"
    },
    {
      "inputs": [
        {
          "internalType": "uint256",
          "name": "_quantity",
          "type": "uint256"
        }
      ],
      "name": "mint",
      "outputs": [],
      "stateMutability": "payable",
      "type": "function"
    },
    {
      "inputs": [],
      "name": "mintPrice",
      "outputs": [
        {
          "internalType": "uint256",
          "name": "",
          "type": "uint256"
        }
      ],
      "stateMutability": "view",
      "type": "function"
    },
    {
      "inputs": [],
      "name": "name",
      "outputs": [
        {
          "internalType": "string",
          "name": "",
          "type": "string"
        }
      ],
      "stateMutability": "view",
      "type": "function"
    },
    {
      "inputs": [],
      "name": "owner",
      "outputs": [
        {
          "internalType": "address",
          "name": "",
          "type": "address"
        }
      ],
      "stateMutability": "view",
      "type": "function"
    },
    {
      "inputs": [
        {
          "internalType": "uint256",
          "name": "tokenId",
          "type": "uint256"
        }
      ],
      "name": "ownerOf",
      "outputs": [
        {
          "internalType": "address",
          "name": "",
          "type": "address"
        }
      ],
      "stateMutability": "view",
      "type": "function"
    },
    {
      "inputs": [],
      "name": "renounceOwnership",
      "outputs": [],
      "stateMutability": "nonpayable",
      "type": "function"
    },
    {
      "inputs": [
        {
          "internalType": "address",
          "name": "from",
          "type": "address"
        },
        {
          "internalType": "address",
          "name": "to",
          "type": "address"
        },
        {
          "internalType": "uint256",
          "name": "tokenId",
          "type": "uint256"
        }
      ],
      "name": "safeTransferFrom",
      "outputs": [],
      "stateMutability": "nonpayable",
      "type": "function"
    },
    {
      "inputs": [
        {
          "internalType": "address",
          "name": "from",
          "type": "address"
        },
        {
          "internalType": "address",
          "name": "to",
          "type": "address"
        },
        {
          "internalType": "uint256",
          "name": "tokenId",
          "type": "uint256"
        },
        {
          "internalType": "bytes",
          "name": "data",
          "type": "bytes"
        }
      ],
      "name": "safeTransferFrom",
      "outputs": [],
      "stateMutability": "nonpayable",
      "type": "function"
    },
    {
      "inputs": [
        {
          "internalType": "address",
          "name": "operator",
          "type": "address"
        },
        {
          "internalType": "bool",
          "name": "approved",
          "type": "bool"
        }
      ],
      "name": "setApprovalForAll",
      "outputs": [],
      "stateMutability": "nonpayable",
      "type": "function"
    },
    {
      "inputs": [
        {
          "internalType": "string",
          "name": "_baseTokenUri",
          "type": "string"
        }
      ],
      "name": "setBaseTokenUri",
      "outputs": [],
      "stateMutability": "nonpayable",
      "type": "function"
    },
    {
      "inputs": [
        {
          "internalType": "bool",
          "name": "_isPublicMintEnabled",
          "type": "bool"
        }
      ],
      "name": "setIsPublicMintEnabled",
      "outputs": [],
      "stateMutability": "nonpayable",
      "type": "function"
    },
    {
      "inputs": [
        {
          "internalType": "bytes4",
          "name": "interfaceId",
          "type": "bytes4"
        }
      ],
      "name": "supportsInterface",
      "outputs": [
        {
          "internalType": "bool",
          "name": "",
          "type": "bool"
        }
      ],
      "stateMutability": "view",
      "type": "function"
    },
    {
      "inputs": [],
      "name": "symbol",
      "outputs": [
        {
          "internalType": "string",
          "name": "",
          "type": "string"
        }
      ],
      "stateMutability": "view",
      "type": "function"
    },
    {
      "inputs": [
        {
          "internalType": "uint256",
          "name": "_tokenId",
          "type": "uint256"
        }
      ],
      "name": "tokenURI",
      "outputs": [
        {
          "internalType": "string",
          "name": "",
          "type": "string"
        }
      ],
      "stateMutability": "view",
      "type": "function"
    },
    {
      "inputs": [],
      "name": "totalSupply",
      "outputs": [
        {
          "internalType": "uint256",
          "name": "",
          "type": "uint256"
        }
      ],
      "stateMutability": "view",
      "type": "function"
    },
    {
      "inputs": [
        {
          "internalType": "address",
          "name": "from",
          "type": "address"
        },
        {
          "internalType": "address",
          "name": "to",
          "type": "address"
        },
        {
          "internalType": "uint256",
          "name": "tokenId",
          "type": "uint256"
        }
      ],
      "name": "transferFrom",
      "outputs": [],
      "stateMutability": "nonpayable",
      "type": "function"
    },
    {
      "inputs": [
        {
          "internalType": "address",
          "name": "newOwner",
          "type": "address"
        }
      ],
      "name": "transferOwnership",
      "outputs": [],
      "stateMutability": "nonpayable",
      "type": "function"
    },
    {
      "inputs": [
        {
          "internalType": "address",
          "name": "",
          "type": "address"
        }
      ],
      "name": "walletMints",
      "outputs": [
        {
          "internalType": "uint256",
          "name": "",
          "type": "uint256"
        }
      ],
      "stateMutability": "view",
      "type": "function"
    },
    {
      "inputs": [
        {
          "internalType": "address payable",
          "name": "_withdrawWallet",
          "type": "address"
        }
      ],
      "name": "withdraw",
      "outputs": [],
      "stateMutability": "nonpayable",
      "type": "function"
    }
  ],
  "bytecode": "0x60806040523480156200001157600080fd5b506040518060400160405280600881526020017f44756d62436172730000000000000000000000000000000000000000000000008152506040518060400160405280600281526020017f444300000000000000000000000000000000000000000000000000000000000081525081600090816200008f919062000438565b508060019081620000a1919062000438565b505050620000c4620000b8620000f060201b60201c565b620000f860201b60201c565b662386f26fc10000600781905550600060088190555060196009819055506002600a819055506200051f565b600033905090565b6000600660009054906101000a900473ffffffffffffffffffffffffffffffffffffffff16905081600660006101000a81548173ffffffffffffffffffffffffffffffffffffffff021916908373ffffffffffffffffffffffffffffffffffffffff1602179055508173ffffffffffffffffffffffffffffffffffffffff168173ffffffffffffffffffffffffffffffffffffffff167f8be0079c531659141344cd1fd0a4f28419497f9722a3daafe3b4186f6b6457e060405160405180910390a35050565b600081519050919050565b7f4e487b7100000000000000000000000000000000000000000000000000000000600052604160045260246000fd5b7f4e487b7100000000000000000000000000000000000000000000000000000000600052602260045260246000fd5b600060028204905060018216806200024057607f821691505b602082108103620002565762000255620001f8565b5b50919050565b60008190508160005260206000209050919050565b60006020601f8301049050919050565b600082821b905092915050565b600060088302620002c07fffffffffffffffffffffffffffffffffffffffffffffffffffffffffffffffff8262000281565b620002cc868362000281565b95508019841693508086168417925050509392505050565b6000819050919050565b6000819050919050565b600062000319620003136200030d84620002e4565b620002ee565b620002e4565b9050919050565b6000819050919050565b6200033583620002f8565b6200034d620003448262000320565b8484546200028e565b825550505050565b600090565b6200036462000355565b620003718184846200032a565b505050565b5b8181101562000399576200038d6000826200035a565b60018101905062000377565b5050565b601f821115620003e857620003b2816200025c565b620003bd8462000271565b81016020851015620003cd578190505b620003e5620003dc8562000271565b83018262000376565b50505b505050565b600082821c905092915050565b60006200040d60001984600802620003ed565b1980831691505092915050565b6000620004288383620003fa565b9150826002028217905092915050565b6200044382620001be565b67ffffffffffffffff8111156200045f576200045e620001c9565b5b6200046b825462000227565b620004788282856200039d565b600060209050601f831160018114620004b057600084156200049b578287015190505b620004a785826200041a565b86555062000517565b601f198416620004c0866200025c565b60005b82811015620004ea57848901518255600182019150602085019450602081019050620004c3565b868310156200050a578489015162000506601f891682620003fa565b8355505b6001600288020188555050505b505050505050565b6137d7806200052f6000396000f3fe60806040526004361061019c5760003560e01c806370a08231116100ec578063a22cb4651161008a578063d5abeb0111610064578063d5abeb01146105a5578063e985e9c5146105d0578063f0293fd31461060d578063f2fde38b1461064a5761019c565b8063a22cb46514610516578063b88d4fde1461053f578063c87b56dd146105685761019c565b80638da5cb5b116100c65780638da5cb5b1461047b57806395652cfa146104a657806395d89b41146104cf578063a0712d68146104fa5761019c565b806370a08231146103fc578063715018a6146104395780637a0101a2146104505761019c565b80632373ac2211610159578063453c231011610133578063453c23101461034057806351cff8d91461036b5780636352211e146103945780636817c76c146103d15761019c565b80632373ac22146102c557806323b872dd146102ee57806342842e0e146103175761019c565b80630116bc2d146101a157806301ffc9a7146101cc57806306fdde0314610209578063081812fc14610234578063095ea7b31461027157806318160ddd1461029a575b600080fd5b3480156101ad57600080fd5b506101b6610673565b6040516101c39190612123565b60405180910390f35b3480156101d857600080fd5b506101f360048036038101906101ee91906121aa565b610686565b6040516102009190612123565b60405180910390f35b34801561021557600080fd5b5061021e610768565b60405161022b9190612267565b60405180910390f35b34801561024057600080fd5b5061025b600480360381019061025691906122bf565b6107fa565b604051610268919061232d565b60405180910390f35b34801561027d57600080fd5b5061029860048036038101906102939190612374565b610840565b005b3480156102a657600080fd5b506102af610957565b6040516102bc91906123c3565b60405180910390f35b3480156102d157600080fd5b506102ec60048036038101906102e7919061240a565b61095d565b005b3480156102fa57600080fd5b5061031560048036038101906103109190612437565b610982565b005b34801561032357600080fd5b5061033e60048036038101906103399190612437565b6109e2565b005b34801561034c57600080fd5b50610355610a02565b60405161036291906123c3565b60405180910390f35b34801561037757600080fd5b50610392600480360381019061038d91906124c8565b610a08565b005b3480156103a057600080fd5b506103bb60048036038101906103b691906122bf565b610ac0565b6040516103c8919061232d565b60405180910390f35b3480156103dd57600080fd5b506103e6610b46565b6040516103f391906123c3565b60405180910390f35b34801561040857600080fd5b50610423600480360381019061041e91906124f5565b610b4c565b60405161043091906123c3565b60405180910390f35b34801561044557600080fd5b5061044e610c03565b005b34801561045c57600080fd5b50610465610c17565b6040516104729190612267565b60405180910390f35b34801561048757600080fd5b50610490610ca5565b60405161049d919061232d565b60405180910390f35b3480156104b257600080fd5b506104cd60048036038101906104c89190612587565b610ccf565b005b3480156104db57600080fd5b506104e4610ced565b6040516104f19190612267565b60405180910390f35b610514600480360381019061050f91906122bf565b610d7f565b005b34801561052257600080fd5b5061053d600480360381019061053891906125d4565b610fe4565b005b34801561054b57600080fd5b5061056660048036038101906105619190612744565b610ffa565b005b34801561057457600080fd5b5061058f600480360381019061058a91906122bf565b61105c565b60405161059c9190612267565b60405180910390f35b3480156105b157600080fd5b506105ba6110d8565b6040516105c791906123c3565b60405180910390f35b3480156105dc57600080fd5b506105f760048036038101906105f291906127c7565b6110de565b6040516106049190612123565b60405180910390f35b34801561061957600080fd5b50610634600480360381019061062f91906124f5565b611172565b60405161064191906123c3565b60405180910390f35b34801561065657600080fd5b50610671600480360381019061066c91906124f5565b61118a565b005b600b60009054906101000a900460ff1681565b60007f80ac58cd000000000000000000000000000000000000000000000000000000007bffffffffffffffffffffffffffffffffffffffffffffffffffffffff1916827bffffffffffffffffffffffffffffffffffffffffffffffffffffffff1916148061075157507f5b5e139f000000000000000000000000000000000000000000000000000000007bffffffffffffffffffffffffffffffffffffffffffffffffffffffff1916827bffffffffffffffffffffffffffffffffffffffffffffffffffffffff1916145b8061076157506107608261120d565b5b9050919050565b60606000805461077790612836565b80601f01602080910402602001604051908101604052809291908181526020018280546107a390612836565b80156107f05780601f106107c5576101008083540402835291602001916107f0565b820191906000526020600020905b8154815290600101906020018083116107d357829003601f168201915b5050505050905090565b600061080582611277565b6004600083815260200190815260200160002060009054906101000a900473ffffffffffffffffffffffffffffffffffffffff169050919050565b600061084b82610ac0565b90508073ffffffffffffffffffffffffffffffffffffffff168373ffffffffffffffffffffffffffffffffffffffff16036108bb576040517f08c379a00000000000000000000000000000000000000000000000000000000081526004016108b2906128d9565b60405180910390fd5b8073ffffffffffffffffffffffffffffffffffffffff166108da6112c2565b73ffffffffffffffffffffffffffffffffffffffff1614806109095750610908816109036112c2565b6110de565b5b610948576040517f08c379a000000000000000000000000000000000000000000000000000000000815260040161093f9061296b565b60405180910390fd5b61095283836112ca565b505050565b60085481565b610965611383565b80600b60006101000a81548160ff02191690831515021790555050565b61099361098d6112c2565b82611401565b6109d2576040517f08c379a00000000000000000000000000000000000000000000000000000000081526004016109c9906129fd565b60405180910390fd5b6109dd838383611496565b505050565b6109fd83838360405180602001604052806000815250610ffa565b505050565b600a5481565b610a10611383565b60008173ffffffffffffffffffffffffffffffffffffffff1647604051610a3690612a4e565b60006040518083038185875af1925050503d8060008114610a73576040519150601f19603f3d011682016040523d82523d6000602084013e610a78565b606091505b5050905080610abc576040517f08c379a0000000000000000000000000000000000000000000000000000000008152600401610ab390612aaf565b60405180910390fd5b5050565b600080610acc8361178f565b9050600073ffffffffffffffffffffffffffffffffffffffff168173ffffffffffffffffffffffffffffffffffffffff1603610b3d576040517f08c379a0000000000000000000000000000000000000000000000000000000008152600401610b3490612b1b565b60405180910390fd5b80915050919050565b60075481565b60008073ffffffffffffffffffffffffffffffffffffffff168273ffffffffffffffffffffffffffffffffffffffff1603610bbc576040517f08c379a0000000000000000000000000000000000000000000000000000000008152600401610bb390612bad565b60405180910390fd5b600360008373ffffffffffffffffffffffffffffffffffffffff1673ffffffffffffffffffffffffffffffffffffffff168152602001908152602001600020549050919050565b610c0b611383565b610c1560006117cc565b565b600c8054610c2490612836565b80601f0160208091040260200160405190810160405280929190818152602001828054610c5090612836565b8015610c9d5780601f10610c7257610100808354040283529160200191610c9d565b820191906000526020600020905b815481529060010190602001808311610c8057829003601f168201915b505050505081565b6000600660009054906101000a900473ffffffffffffffffffffffffffffffffffffffff16905090565b610cd7611383565b8181600c9182610ce8929190612d84565b505050565b606060018054610cfc90612836565b80601f0160208091040260200160405190810160405280929190818152602001828054610d2890612836565b8015610d755780601f10610d4a57610100808354040283529160200191610d75565b820191906000526020600020905b815481529060010190602001808311610d5857829003601f168201915b5050505050905090565b600b60009054906101000a900460ff16610dce576040517f08c379a0000000000000000000000000000000000000000000000000000000008152600401610dc590612ea0565b60405180910390fd5b60095481600854610ddf9190612eef565b1115610e20576040517f08c379a0000000000000000000000000000000000000000000000000000000008152600401610e1790612f6f565b60405180910390fd5b80600754610e2e9190612f8f565b3414610e6f576040517f08c379a0000000000000000000000000000000000000000000000000000000008152600401610e669061301d565b60405180910390fd5b600a5481600d60003373ffffffffffffffffffffffffffffffffffffffff1673ffffffffffffffffffffffffffffffffffffffff16815260200190815260200160002054610ebd9190612eef565b1115610efe576040517f08c379a0000000000000000000000000000000000000000000000000000000008152600401610ef590613089565b60405180910390fd5b80600d60003373ffffffffffffffffffffffffffffffffffffffff1673ffffffffffffffffffffffffffffffffffffffff16815260200190815260200160002054610f499190612eef565b600d60003373ffffffffffffffffffffffffffffffffffffffff1673ffffffffffffffffffffffffffffffffffffffff1681526020019081526020016000208190555060005b81811015610fe05760006001600854610fa89190612eef565b905060086000815480929190610fbd906130a9565b9190505550610fcc3382611892565b508080610fd8906130a9565b915050610f8f565b5050565b610ff6610fef6112c2565b83836118b0565b5050565b61100b6110056112c2565b83611401565b61104a576040517f08c379a0000000000000000000000000000000000000000000000000000000008152600401611041906129fd565b60405180910390fd5b61105684848484611a1c565b50505050565b606061106782611a78565b6110a6576040517f08c379a000000000000000000000000000000000000000000000000000000000815260040161109d9061313d565b60405180910390fd5b600c6110b183611ab9565b6040516020016110c2929190613268565b6040516020818303038152906040529050919050565b60095481565b6000600560008473ffffffffffffffffffffffffffffffffffffffff1673ffffffffffffffffffffffffffffffffffffffff16815260200190815260200160002060008373ffffffffffffffffffffffffffffffffffffffff1673ffffffffffffffffffffffffffffffffffffffff16815260200190815260200160002060009054906101000a900460ff16905092915050565b600d6020528060005260406000206000915090505481565b611192611383565b600073ffffffffffffffffffffffffffffffffffffffff168173ffffffffffffffffffffffffffffffffffffffff1603611201576040517f08c379a00000000000000000000000000000000000000000000000000000000081526004016111f890613309565b60405180910390fd5b61120a816117cc565b50565b60007f01ffc9a7000000000000000000000000000000000000000000000000000000007bffffffffffffffffffffffffffffffffffffffffffffffffffffffff1916827bffffffffffffffffffffffffffffffffffffffffffffffffffffffff1916149050919050565b61128081611a78565b6112bf576040517f08c379a00000000000000000000000000000000000000000000000000000000081526004016112b690612b1b565b60405180910390fd5b50565b600033905090565b816004600083815260200190815260200160002060006101000a81548173ffffffffffffffffffffffffffffffffffffffff021916908373ffffffffffffffffffffffffffffffffffffffff160217905550808273ffffffffffffffffffffffffffffffffffffffff1661133d83610ac0565b73ffffffffffffffffffffffffffffffffffffffff167f8c5be1e5ebec7d5bd14f71427d1e84f3dd0314c0f7b2291e5b200ac8c7c3b92560405160405180910390a45050565b61138b6112c2565b73ffffffffffffffffffffffffffffffffffffffff166113a9610ca5565b73ffffffffffffffffffffffffffffffffffffffff16146113ff576040517f08c379a00000000000000000000000000000000000000000000000000000000081526004016113f690613375565b60405180910390fd5b565b60008061140d83610ac0565b90508073ffffffffffffffffffffffffffffffffffffffff168473ffffffffffffffffffffffffffffffffffffffff16148061144f575061144e81856110de565b5b8061148d57508373ffffffffffffffffffffffffffffffffffffffff16611475846107fa565b73ffffffffffffffffffffffffffffffffffffffff16145b91505092915050565b8273ffffffffffffffffffffffffffffffffffffffff166114b682610ac0565b73ffffffffffffffffffffffffffffffffffffffff161461150c576040517f08c379a000000000000000000000000000000000000000000000000000000000815260040161150390613407565b60405180910390fd5b600073ffffffffffffffffffffffffffffffffffffffff168273ffffffffffffffffffffffffffffffffffffffff160361157b576040517f08c379a000000000000000000000000000000000000000000000000000000000815260040161157290613499565b60405180910390fd5b6115888383836001611b87565b8273ffffffffffffffffffffffffffffffffffffffff166115a882610ac0565b73ffffffffffffffffffffffffffffffffffffffff16146115fe576040517f08c379a00000000000000000000000000000000000000000000000000000000081526004016115f590613407565b60405180910390fd5b6004600082815260200190815260200160002060006101000a81549073ffffffffffffffffffffffffffffffffffffffff02191690556001600360008573ffffffffffffffffffffffffffffffffffffffff1673ffffffffffffffffffffffffffffffffffffffff168152602001908152602001600020600082825403925050819055506001600360008473ffffffffffffffffffffffffffffffffffffffff1673ffffffffffffffffffffffffffffffffffffffff16815260200190815260200160002060008282540192505081905550816002600083815260200190815260200160002060006101000a81548173ffffffffffffffffffffffffffffffffffffffff021916908373ffffffffffffffffffffffffffffffffffffffff160217905550808273ffffffffffffffffffffffffffffffffffffffff168473ffffffffffffffffffffffffffffffffffffffff167fddf252ad1be2c89b69c2b068fc378daa952ba7f163c4a11628f55a4df523b3ef60405160405180910390a461178a8383836001611b8d565b505050565b60006002600083815260200190815260200160002060009054906101000a900473ffffffffffffffffffffffffffffffffffffffff169050919050565b6000600660009054906101000a900473ffffffffffffffffffffffffffffffffffffffff16905081600660006101000a81548173ffffffffffffffffffffffffffffffffffffffff021916908373ffffffffffffffffffffffffffffffffffffffff1602179055508173ffffffffffffffffffffffffffffffffffffffff168173ffffffffffffffffffffffffffffffffffffffff167f8be0079c531659141344cd1fd0a4f28419497f9722a3daafe3b4186f6b6457e060405160405180910390a35050565b6118ac828260405180602001604052806000815250611b93565b5050565b8173ffffffffffffffffffffffffffffffffffffffff168373ffffffffffffffffffffffffffffffffffffffff160361191e576040517f08c379a000000000000000000000000000000000000000000000000000000000815260040161191590613505565b60405180910390fd5b80600560008573ffffffffffffffffffffffffffffffffffffffff1673ffffffffffffffffffffffffffffffffffffffff16815260200190815260200160002060008473ffffffffffffffffffffffffffffffffffffffff1673ffffffffffffffffffffffffffffffffffffffff16815260200190815260200160002060006101000a81548160ff0219169083151502179055508173ffffffffffffffffffffffffffffffffffffffff168373ffffffffffffffffffffffffffffffffffffffff167f17307eab39ab6107e8899845ad3d59bd9653f200f220920489ca2b5937696c3183604051611a0f9190612123565b60405180910390a3505050565b611a27848484611496565b611a3384848484611bee565b611a72576040517f08c379a0000000000000000000000000000000000000000000000000000000008152600401611a6990613597565b60405180910390fd5b50505050565b60008073ffffffffffffffffffffffffffffffffffffffff16611a9a8361178f565b73ffffffffffffffffffffffffffffffffffffffff1614159050919050565b606060006001611ac884611d75565b01905060008167ffffffffffffffff811115611ae757611ae6612619565b5b6040519080825280601f01601f191660200182016040528015611b195781602001600182028036833780820191505090505b509050600082602001820190505b600115611b7c578080600190039150507f3031323334353637383961626364656600000000000000000000000000000000600a86061a8153600a8581611b7057611b6f6135b7565b5b04945060008503611b27575b819350505050919050565b50505050565b50505050565b611b9d8383611ec8565b611baa6000848484611bee565b611be9576040517f08c379a0000000000000000000000000000000000000000000000000000000008152600401611be090613597565b60405180910390fd5b505050565b6000611c0f8473ffffffffffffffffffffffffffffffffffffffff166120e5565b15611d68578373ffffffffffffffffffffffffffffffffffffffff1663150b7a02611c386112c2565b8786866040518563ffffffff1660e01b8152600401611c5a949392919061363b565b6020604051808303816000875af1925050508015611c9657506040513d601f19601f82011682018060405250810190611c93919061369c565b60015b611d18573d8060008114611cc6576040519150601f19603f3d011682016040523d82523d6000602084013e611ccb565b606091505b506000815103611d10576040517f08c379a0000000000000000000000000000000000000000000000000000000008152600401611d0790613597565b60405180910390fd5b805181602001fd5b63150b7a0260e01b7bffffffffffffffffffffffffffffffffffffffffffffffffffffffff1916817bffffffffffffffffffffffffffffffffffffffffffffffffffffffff191614915050611d6d565b600190505b949350505050565b600080600090507a184f03e93ff9f4daa797ed6e38ed64bf6a1f0100000000000000008310611dd3577a184f03e93ff9f4daa797ed6e38ed64bf6a1f0100000000000000008381611dc957611dc86135b7565b5b0492506040810190505b6d04ee2d6d415b85acef81000000008310611e10576d04ee2d6d415b85acef81000000008381611e0657611e056135b7565b5b0492506020810190505b662386f26fc100008310611e3f57662386f26fc100008381611e3557611e346135b7565b5b0492506010810190505b6305f5e1008310611e68576305f5e1008381611e5e57611e5d6135b7565b5b0492506008810190505b6127108310611e8d576127108381611e8357611e826135b7565b5b0492506004810190505b60648310611eb05760648381611ea657611ea56135b7565b5b0492506002810190505b600a8310611ebf576001810190505b80915050919050565b600073ffffffffffffffffffffffffffffffffffffffff168273ffffffffffffffffffffffffffffffffffffffff1603611f37576040517f08c379a0000000000000000000000000000000000000000000000000000000008152600401611f2e90613715565b60405180910390fd5b611f4081611a78565b15611f80576040517f08c379a0000000000000000000000000000000000000000000000000000000008152600401611f7790613781565b60405180910390fd5b611f8e600083836001611b87565b611f9781611a78565b15611fd7576040517f08c379a0000000000000000000000000000000000000000000000000000000008152600401611fce90613781565b60405180910390fd5b6001600360008473ffffffffffffffffffffffffffffffffffffffff1673ffffffffffffffffffffffffffffffffffffffff16815260200190815260200160002060008282540192505081905550816002600083815260200190815260200160002060006101000a81548173ffffffffffffffffffffffffffffffffffffffff021916908373ffffffffffffffffffffffffffffffffffffffff160217905550808273ffffffffffffffffffffffffffffffffffffffff16600073ffffffffffffffffffffffffffffffffffffffff167fddf252ad1be2c89b69c2b068fc378daa952ba7f163c4a11628f55a4df523b3ef60405160405180910390a46120e1600083836001611b8d565b5050565b6000808273ffffffffffffffffffffffffffffffffffffffff163b119050919050565b60008115159050919050565b61211d81612108565b82525050565b60006020820190506121386000830184612114565b92915050565b6000604051905090565b600080fd5b600080fd5b60007fffffffff0000000000000000000000000000000000000000000000000000000082169050919050565b61218781612152565b811461219257600080fd5b50565b6000813590506121a48161217e565b92915050565b6000602082840312156121c0576121bf612148565b5b60006121ce84828501612195565b91505092915050565b600081519050919050565b600082825260208201905092915050565b60005b838110156122115780820151818401526020810190506121f6565b60008484015250505050565b6000601f19601f8301169050919050565b6000612239826121d7565b61224381856121e2565b93506122538185602086016121f3565b61225c8161221d565b840191505092915050565b60006020820190508181036000830152612281818461222e565b905092915050565b6000819050919050565b61229c81612289565b81146122a757600080fd5b50565b6000813590506122b981612293565b92915050565b6000602082840312156122d5576122d4612148565b5b60006122e3848285016122aa565b91505092915050565b600073ffffffffffffffffffffffffffffffffffffffff82169050919050565b6000612317826122ec565b9050919050565b6123278161230c565b82525050565b6000602082019050612342600083018461231e565b92915050565b6123518161230c565b811461235c57600080fd5b50565b60008135905061236e81612348565b92915050565b6000806040838503121561238b5761238a612148565b5b60006123998582860161235f565b92505060206123aa858286016122aa565b9150509250929050565b6123bd81612289565b82525050565b60006020820190506123d860008301846123b4565b92915050565b6123e781612108565b81146123f257600080fd5b50565b600081359050612404816123de565b92915050565b6000602082840312156124205761241f612148565b5b600061242e848285016123f5565b91505092915050565b6000806000606084860312156124505761244f612148565b5b600061245e8682870161235f565b935050602061246f8682870161235f565b9250506040612480868287016122aa565b9150509250925092565b6000612495826122ec565b9050919050565b6124a58161248a565b81146124b057600080fd5b50565b6000813590506124c28161249c565b92915050565b6000602082840312156124de576124dd612148565b5b60006124ec848285016124b3565b91505092915050565b60006020828403121561250b5761250a612148565b5b60006125198482850161235f565b91505092915050565b600080fd5b600080fd5b600080fd5b60008083601f84011261254757612546612522565b5b8235905067ffffffffffffffff81111561256457612563612527565b5b6020830191508360018202830111156125805761257f61252c565b5b9250929050565b6000806020838503121561259e5761259d612148565b5b600083013567ffffffffffffffff8111156125bc576125bb61214d565b5b6125c885828601612531565b92509250509250929050565b600080604083850312156125eb576125ea612148565b5b60006125f98582860161235f565b925050602061260a858286016123f5565b9150509250929050565b600080fd5b7f4e487b7100000000000000000000000000000000000000000000000000000000600052604160045260246000fd5b6126518261221d565b810181811067ffffffffffffffff821117156126705761266f612619565b5b80604052505050565b600061268361213e565b905061268f8282612648565b919050565b600067ffffffffffffffff8211156126af576126ae612619565b5b6126b88261221d565b9050602081019050919050565b82818337600083830152505050565b60006126e76126e284612694565b612679565b90508281526020810184848401111561270357612702612614565b5b61270e8482856126c5565b509392505050565b600082601f83011261272b5761272a612522565b5b813561273b8482602086016126d4565b91505092915050565b6000806000806080858703121561275e5761275d612148565b5b600061276c8782880161235f565b945050602061277d8782880161235f565b935050604061278e878288016122aa565b925050606085013567ffffffffffffffff8111156127af576127ae61214d565b5b6127bb87828801612716565b91505092959194509250565b600080604083850312156127de576127dd612148565b5b60006127ec8582860161235f565b92505060206127fd8582860161235f565b9150509250929050565b7f4e487b7100000000000000000000000000000000000000000000000000000000600052602260045260246000fd5b6000600282049050600182168061284e57607f821691505b60208210810361286157612860612807565b5b50919050565b7f4552433732313a20617070726f76616c20746f2063757272656e74206f776e6560008201527f7200000000000000000000000000000000000000000000000000000000000000602082015250565b60006128c36021836121e2565b91506128ce82612867565b604082019050919050565b600060208201905081810360008301526128f2816128b6565b9050919050565b7f4552433732313a20617070726f76652063616c6c6572206973206e6f7420746f60008201527f6b656e206f776e6572206f7220617070726f76656420666f7220616c6c000000602082015250565b6000612955603d836121e2565b9150612960826128f9565b604082019050919050565b6000602082019050818103600083015261298481612948565b9050919050565b7f4552433732313a2063616c6c6572206973206e6f7420746f6b656e206f776e6560008201527f72206f7220617070726f76656400000000000000000000000000000000000000602082015250565b60006129e7602d836121e2565b91506129f28261298b565b604082019050919050565b60006020820190508181036000830152612a16816129da565b9050919050565b600081905092915050565b50565b6000612a38600083612a1d565b9150612a4382612a28565b600082019050919050565b6000612a5982612a2b565b9150819050919050565b7f5769746864726177206661696c65642e00000000000000000000000000000000600082015250565b6000612a996010836121e2565b9150612aa482612a63565b602082019050919050565b60006020820190508181036000830152612ac881612a8c565b9050919050565b7f4552433732313a20696e76616c696420746f6b656e2049440000000000000000600082015250565b6000612b056018836121e2565b9150612b1082612acf565b602082019050919050565b60006020820190508181036000830152612b3481612af8565b9050919050565b7f4552433732313a2061646472657373207a65726f206973206e6f74206120766160008201527f6c6964206f776e65720000000000000000000000000000000000000000000000602082015250565b6000612b976029836121e2565b9150612ba282612b3b565b604082019050919050565b60006020820190508181036000830152612bc681612b8a565b9050919050565b600082905092915050565b60008190508160005260206000209050919050565b60006020601f8301049050919050565b600082821b905092915050565b600060088302612c3a7fffffffffffffffffffffffffffffffffffffffffffffffffffffffffffffffff82612bfd565b612c448683612bfd565b95508019841693508086168417925050509392505050565b6000819050919050565b6000612c81612c7c612c7784612289565b612c5c565b612289565b9050919050565b6000819050919050565b612c9b83612c66565b612caf612ca782612c88565b848454612c0a565b825550505050565b600090565b612cc4612cb7565b612ccf818484612c92565b505050565b5b81811015612cf357612ce8600082612cbc565b600181019050612cd5565b5050565b601f821115612d3857612d0981612bd8565b612d1284612bed565b81016020851015612d21578190505b612d35612d2d85612bed565b830182612cd4565b50505b505050565b600082821c905092915050565b6000612d5b60001984600802612d3d565b1980831691505092915050565b6000612d748383612d4a565b9150826002028217905092915050565b612d8e8383612bcd565b67ffffffffffffffff811115612da757612da6612619565b5b612db18254612836565b612dbc828285612cf7565b6000601f831160018114612deb5760008415612dd9578287013590505b612de38582612d68565b865550612e4b565b601f198416612df986612bd8565b60005b82811015612e2157848901358255600182019150602085019450602081019050612dfc565b86831015612e3e5784890135612e3a601f891682612d4a565b8355505b6001600288020188555050505b50505050505050565b7f5075626c6963206d696e74206973206e6f7420656e61626c65642e0000000000600082015250565b6000612e8a601b836121e2565b9150612e9582612e54565b602082019050919050565b60006020820190508181036000830152612eb981612e7d565b9050919050565b7f4e487b7100000000000000000000000000000000000000000000000000000000600052601160045260246000fd5b6000612efa82612289565b9150612f0583612289565b9250828201905080821115612f1d57612f1c612ec0565b5b92915050565b7f536f6c64206f75742e0000000000000000000000000000000000000000000000600082015250565b6000612f596009836121e2565b9150612f6482612f23565b602082019050919050565b60006020820190508181036000830152612f8881612f4c565b9050919050565b6000612f9a82612289565b9150612fa583612289565b9250828202612fb381612289565b91508282048414831517612fca57612fc9612ec0565b5b5092915050565b7f57726f6e672076616c75652e0000000000000000000000000000000000000000600082015250565b6000613007600c836121e2565b915061301282612fd1565b602082019050919050565b6000602082019050818103600083015261303681612ffa565b9050919050565b7f4d6f7265207468616e206d6178207065722077616c6c6574206c696d69742e00600082015250565b6000613073601f836121e2565b915061307e8261303d565b602082019050919050565b600060208201905081810360008301526130a281613066565b9050919050565b60006130b482612289565b91507fffffffffffffffffffffffffffffffffffffffffffffffffffffffffffffffff82036130e6576130e5612ec0565b5b600182019050919050565b7f546f6b656e20696420646f6573206e6f742065786973742e0000000000000000600082015250565b60006131276018836121e2565b9150613132826130f1565b602082019050919050565b600060208201905081810360008301526131568161311a565b9050919050565b600081905092915050565b6000815461317581612836565b61317f818661315d565b9450600182166000811461319a57600181146131af576131e2565b60ff19831686528115158202860193506131e2565b6131b885612bd8565b60005b838110156131da578154818901526001820191506020810190506131bb565b838801955050505b50505092915050565b60006131f6826121d7565b613200818561315d565b93506132108185602086016121f3565b80840191505092915050565b7f2e6a736f6e000000000000000000000000000000000000000000000000000000600082015250565b600061325260058361315d565b915061325d8261321c565b600582019050919050565b60006132748285613168565b915061328082846131eb565b915061328b82613245565b91508190509392505050565b7f4f776e61626c653a206e6577206f776e657220697320746865207a65726f206160008201527f6464726573730000000000000000000000000000000000000000000000000000602082015250565b60006132f36026836121e2565b91506132fe82613297565b604082019050919050565b60006020820190508181036000830152613322816132e6565b9050919050565b7f4f776e61626c653a2063616c6c6572206973206e6f7420746865206f776e6572600082015250565b600061335f6020836121e2565b915061336a82613329565b602082019050919050565b6000602082019050818103600083015261338e81613352565b9050919050565b7f4552433732313a207472616e736665722066726f6d20696e636f72726563742060008201527f6f776e6572000000000000000000000000000000000000000000000000000000602082015250565b60006133f16025836121e2565b91506133fc82613395565b604082019050919050565b60006020820190508181036000830152613420816133e4565b9050919050565b7f4552433732313a207472616e7366657220746f20746865207a65726f2061646460008201527f7265737300000000000000000000000000000000000000000000000000000000602082015250565b60006134836024836121e2565b915061348e82613427565b604082019050919050565b600060208201905081810360008301526134b281613476565b9050919050565b7f4552433732313a20617070726f766520746f2063616c6c657200000000000000600082015250565b60006134ef6019836121e2565b91506134fa826134b9565b602082019050919050565b6000602082019050818103600083015261351e816134e2565b9050919050565b7f4552433732313a207472616e7366657220746f206e6f6e20455243373231526560008201527f63656976657220696d706c656d656e7465720000000000000000000000000000602082015250565b60006135816032836121e2565b915061358c82613525565b604082019050919050565b600060208201905081810360008301526135b081613574565b9050919050565b7f4e487b7100000000000000000000000000000000000000000000000000000000600052601260045260246000fd5b600081519050919050565b600082825260208201905092915050565b600061360d826135e6565b61361781856135f1565b93506136278185602086016121f3565b6136308161221d565b840191505092915050565b6000608082019050613650600083018761231e565b61365d602083018661231e565b61366a60408301856123b4565b818103606083015261367c8184613602565b905095945050505050565b6000815190506136968161217e565b92915050565b6000602082840312156136b2576136b1612148565b5b60006136c084828501613687565b91505092915050565b7f4552433732313a206d696e7420746f20746865207a65726f2061646472657373600082015250565b60006136ff6020836121e2565b915061370a826136c9565b602082019050919050565b6000602082019050818103600083015261372e816136f2565b9050919050565b7f4552433732313a20746f6b656e20616c7265616479206d696e74656400000000600082015250565b600061376b601c836121e2565b915061377682613735565b602082019050919050565b6000602082019050818103600083015261379a8161375e565b905091905056fea2646970667358221220b4fd005dc9f7c4b9a1f770f3f275bd5025bea4346796405156aa6afd7b5cb32964736f6c63430008120033",
  "linkReferences": {},
  "deployedLinkReferences": {}
}